{
  "contractName": "DappToken",
  "abi": [
    {
      "constant": true,
      "inputs": [],
      "name": "totalSupply",
      "outputs": [
        {
          "name": "",
          "type": "uint256"
        }
      ],
      "payable": false,
      "stateMutability": "view",
      "type": "function",
      "signature": "0x18160ddd"
    },
    {
      "inputs": [],
      "payable": false,
      "stateMutability": "nonpayable",
      "type": "constructor",
      "signature": "constructor"
    }
  ],
  "bytecode": "0x608060405234801561001057600080fd5b50620f4240600081905550609e806100296000396000f3fe608060405260043610603f576000357c0100000000000000000000000000000000000000000000000000000000900463ffffffff16806318160ddd146044575b600080fd5b348015604f57600080fd5b506056606c565b6040518082815260200191505060405180910390f35b6000548156fea165627a7a72305820b30e6395b208cc4f1a5cfba600e406d5443e12fee83aeb6c4b83cbc90d08a9570029",
  "source": "pragma solidity >=0.4.21 <0.6.0;\n\ncontract DappToken {\n\t// Constructor run anytime whenever our smart contract is deployed\n\n\tuint256 public totalSupply; //declared totalSupply\n\n\tconstructor () public {\n\t\t// set the total number of tokens\n\t\ttotalSupply = 1000000;\n\t}\t\n\t\n\t//read the total number of token\n}",
  "sourcePath": "/home/aashish/token_ico/contracts/DappToken.sol",
  "compiler": {
    "name": "solc",
    "version": "0.5.0+commit.1d4f565a.Emscripten.clang"
  },
  "schemaVersion": "3.0.1",
  "updatedAt": "2019-01-10T18:14:26.248Z",
  "devdoc": {
    "methods": {}
  },
  "userdoc": {
    "methods": {}
  }
}